:100000000C9446000C9465000C9465000C946500FB
:100010000C9465000C9465000C9465000C946500CC
:100020000C9465000C9465000C9465000C946500BC
:100030000C9465000C94DE000C9465000C94650033
:100040000C9465000C9465000C9465000C9465009C
:100050000C9465000C9465000C9465000C9465008C
:100060000C9465000C9465000C9465000C9465007C
:100070000C9465000C9465000C9465000C9465006C
:100080000C9465000C9465000C94650011241FBE4F
:10009000CFEFD0E4DEBFCDBF11E0A0E0B1E0E0EAF9
:1000A000F6E000E00BBF02C007900D92A231B1074D
:1000B000D9F721E0A2E1B1E001C01D92A532B2075B
:1000C000E1F70E940A030C944E030C940000CF93B6
:1000D000DF9300D00F92CDB7DEB789837B836A832D
:1000E00089818A3031F48A819B81BC018DE00E9434
:1000F000670080EC90E0FC018081882F90E08072A6
:100100009927892BB1F386EC90E02981FC012083AB
:1001100080E090E00F900F900F90DF91CF910895C5
:10012000CF93DF93CDB7DEB781E890E02BE0FC0101
:10013000208388E890E02DE730E0FC0131832083C4
:100140008FE690E022E0FC01208384E890E0FC014F
:100150001182108280910E0190910F01A0911001E7
:10016000B09111018093130190931401A093150194
:10017000B09316018FE590E0FC0120818FE590E0BF
:100180002068FC0120830000DF91CF910895CF9378
:10019000DF93CDB7DEB781E890E0FC01108200006C
:1001A000DF91CF910895CF93DF93CDB7DEB781E094
:1001B000809312010000DF91CF9108951F920F925A
:1001C0000FB60F9211240BB60F922F933F934F93BC
:1001D0005F936F937F938F939F93AF93BF93EF93AF
:1001E000FF93CF93DF93CDB7DEB78091130190914A
:1001F0001401A0911501B09116010197A109B1094F
:100200008093130190931401A0931501B0931601EC
:100210008091130190911401A0911501B0911601E4
:10022000892B8A2B8B2B91F40E94D30080910E0195
:1002300090910F01A0911001B091110180931301D1
:1002400090931401A0931501B09316010000DF9163
:10025000CF91FF91EF91BF91AF919F918F917F913E
:100260006F915F914F913F912F910F900BBE0F9027
:100270000FBE0F901F901895CF93DF9300D000D042
:10028000CDB7DEB769837A838B839C8389819A811A
:10029000AB81BC8180930E0190930F01A09310015C
:1002A000B093110180910E0190910F01A091100166
:1002B000B09111018093130190931401A093150143
:1002C000B093160100000F900F900F900F90DF91E8
:1002D000CF910895CF93DF9300D00F92CDB7DEB7C3
:1002E00089836A834B838B81882371F08A81282FCD
:1002F00030E081E090E002C0880F991F2A95E2F774
:10030000982F8981892B0EC08A81282F30E081E0C7
:1003100090E002C0880F991F2A95E2F7982F9095D8
:10032000898189230F900F900F90DF91CF910895CD
:10033000CF93DF9300D0CDB7DEB789836A838981FD
:10034000882F90E02A81222F30E002C09595879572
:100350002A95E2F78170992721E0892B09F420E0A2
:10036000822F0F900F90DF91CF910895CF93DF935D
:10037000CDB7DEB7809121019091220182309105A5
:10038000A1F083309105C0F4009719F0019731F086
:1003900013C0109222011092210113C081E090E05D
:1003A00090932201809321010CC082E090E0909311
:1003B00022018093210105C0109222011092210197
:1003C0000000809121019091220182309105D1F0AD
:1003D0008330910500F5009719F0019751F01BC08B
:1003E00081E08093170180911A018F5F80931A0139
:1003F00017C082E08093170180911A018F5F80936C
:100400001A010EC084E08093170180911A018F5F5A
:1004100080931A0105C01092170110921A01000072
:100420000000DF91CF910895CF93DF93CDB7DEB772
:10043000809123019091240182309105A9F08330AD
:100440009105C0F4009719F0019739F013C081E0CD
:1004500090E0909324018093230181E090E09093B9
:100460002401809323010BC082E090E0909324014B
:1004700080932301109224011092230100008091A7
:1004800023019091240182309105B1F083309105D0
:1004900008F5009709F1019709F01CC080911B0134
:1004A0008F5F80931B018091180140E063E00E9400
:1004B0006A018093180111C08091180141E063E046
:1004C0000E946A018093180180911B018F5F8093C5
:1004D0001B0103C0000001C000000000DF91CF91AC
:1004E0000895CF93DF93CDB7DEB780911F01909130
:1004F0002001009731F1019709F046C080E290E0B9
:10050000FC018081882F90E084709927892B91F4D9
:1005100080911C01833038F481E090E090932001B9
:1005200080931F0138C010921C011092200110927C
:100530001F0131C081E090E09093200180931F0162
:100540002AC080E290E0FC018081882F90E08470D6
:100550009927892B91F480911C01833028F4109203
:10056000200110921F0117C010921C0181E090E041
:100570009093200180931F010EC081E090E0909342
:10058000200180931F0107C081E090E0909320013B
:1005900080931F01000080911F019091200100971E
:1005A00051F0019789F41092190180911C018F5F1D
:1005B00080931C010AC080E18093190180911C0185
:1005C0008F5F80931C0101C000000000DF91CF917C
:1005D0000895CF93DF93CDB7DEB780911D01909141
:1005E0001E01892B71F49091190180911801392F06
:1005F000382B2091170185E290E0232BFC0120830A
:1006000005C010921E0110921D0100000000DF9134
:10061000CF910895CF93DF93CDB7DEB781E290E01D
:10062000FC01108282E290E02FEFFC01208384E243
:1006300090E02FEFFC01208385E290E0FC01108226
:1006400087E290E02FEFFC01208388E290E0FC013C
:1006500010828AE290E02FEFFC0120838BE290E091
:10066000FC01108261E070E080E090E00E943C01BB
:100670000E94900085E290E0FC01108200008091D1
:1006800012018823E1F3109212010E94B6010E9428
:1006900014020E9471020E94E902F0CFF894FFCF89
:1006A00000000002000000006700000000000100E0
:0206B000000048
:00000001FF
